{
  "_format": "hh-sol-artifact-1",
  "contractName": "SimpleNFT",
  "sourceName": "contracts/SimpleNFT.sol",
  "abi": [
    {
      "inputs": [],
      "stateMutability": "nonpayable",
      "type": "constructor"
    },
    {
      "anonymous": false,
      "inputs": [
        {
          "indexed": true,
          "internalType": "address",
          "name": "owner",
          "type": "address"
        },
        {
          "indexed": true,
          "internalType": "address",
          "name": "approved",
          "type": "address"
        },
        {
          "indexed": true,
          "internalType": "uint256",
          "name": "tokenId",
          "type": "uint256"
        }
      ],
      "name": "Approval",
      "type": "event"
    },
    {
      "anonymous": false,
      "inputs": [
        {
          "indexed": true,
          "internalType": "address",
          "name": "owner",
          "type": "address"
        },
        {
          "indexed": true,
          "internalType": "address",
          "name": "operator",
          "type": "address"
        },
        {
          "indexed": false,
          "internalType": "bool",
          "name": "approved",
          "type": "bool"
        }
      ],
      "name": "ApprovalForAll",
      "type": "event"
    },
    {
      "anonymous": false,
      "inputs": [
        {
          "indexed": false,
          "internalType": "uint256",
          "name": "_fromTokenId",
          "type": "uint256"
        },
        {
          "indexed": false,
          "internalType": "uint256",
          "name": "_toTokenId",
          "type": "uint256"
        }
      ],
      "name": "BatchMetadataUpdate",
      "type": "event"
    },
    {
      "anonymous": false,
      "inputs": [
        {
          "indexed": false,
          "internalType": "uint256",
          "name": "_tokenId",
          "type": "uint256"
        }
      ],
      "name": "MetadataUpdate",
      "type": "event"
    },
    {
      "anonymous": false,
      "inputs": [
        {
          "indexed": true,
          "internalType": "address",
          "name": "owner",
          "type": "address"
        },
        {
          "indexed": false,
          "internalType": "uint256",
          "name": "tokenId",
          "type": "uint256"
        },
        {
          "indexed": false,
          "internalType": "string",
          "name": "tokenURI",
          "type": "string"
        }
      ],
      "name": "Minted",
      "type": "event"
    },
    {
      "anonymous": false,
      "inputs": [
        {
          "indexed": true,
          "internalType": "address",
          "name": "previousOwner",
          "type": "address"
        },
        {
          "indexed": true,
          "internalType": "address",
          "name": "newOwner",
          "type": "address"
        }
      ],
      "name": "OwnershipTransferred",
      "type": "event"
    },
    {
      "anonymous": false,
      "inputs": [
        {
          "indexed": true,
          "internalType": "address",
          "name": "from",
          "type": "address"
        },
        {
          "indexed": true,
          "internalType": "address",
          "name": "to",
          "type": "address"
        },
        {
          "indexed": true,
          "internalType": "uint256",
          "name": "tokenId",
          "type": "uint256"
        }
      ],
      "name": "Transfer",
      "type": "event"
    },
    {
      "inputs": [
        {
          "internalType": "address",
          "name": "to",
          "type": "address"
        },
        {
          "internalType": "uint256",
          "name": "tokenId",
          "type": "uint256"
        }
      ],
      "name": "approve",
      "outputs": [],
      "stateMutability": "nonpayable",
      "type": "function"
    },
    {
      "inputs": [
        {
          "internalType": "address",
          "name": "owner",
          "type": "address"
        }
      ],
      "name": "balanceOf",
      "outputs": [
        {
          "internalType": "uint256",
          "name": "",
          "type": "uint256"
        }
      ],
      "stateMutability": "view",
      "type": "function"
    },
    {
      "inputs": [
        {
          "internalType": "uint256",
          "name": "tokenId",
          "type": "uint256"
        }
      ],
      "name": "getApproved",
      "outputs": [
        {
          "internalType": "address",
          "name": "",
          "type": "address"
        }
      ],
      "stateMutability": "view",
      "type": "function"
    },
    {
      "inputs": [
        {
          "internalType": "address",
          "name": "owner",
          "type": "address"
        },
        {
          "internalType": "address",
          "name": "operator",
          "type": "address"
        }
      ],
      "name": "isApprovedForAll",
      "outputs": [
        {
          "internalType": "bool",
          "name": "",
          "type": "bool"
        }
      ],
      "stateMutability": "view",
      "type": "function"
    },
    {
      "inputs": [
        {
          "internalType": "string",
          "name": "_tokenURI",
          "type": "string"
        }
      ],
      "name": "mint",
      "outputs": [
        {
          "internalType": "uint256",
          "name": "",
          "type": "uint256"
        }
      ],
      "stateMutability": "nonpayable",
      "type": "function"
    },
    {
      "inputs": [],
      "name": "mintPrice",
      "outputs": [
        {
          "internalType": "uint256",
          "name": "",
          "type": "uint256"
        }
      ],
      "stateMutability": "view",
      "type": "function"
    },
    {
      "inputs": [],
      "name": "name",
      "outputs": [
        {
          "internalType": "string",
          "name": "",
          "type": "string"
        }
      ],
      "stateMutability": "view",
      "type": "function"
    },
    {
      "inputs": [],
      "name": "owner",
      "outputs": [
        {
          "internalType": "address",
          "name": "",
          "type": "address"
        }
      ],
      "stateMutability": "view",
      "type": "function"
    },
    {
      "inputs": [
        {
          "internalType": "uint256",
          "name": "tokenId",
          "type": "uint256"
        }
      ],
      "name": "ownerOf",
      "outputs": [
        {
          "internalType": "address",
          "name": "",
          "type": "address"
        }
      ],
      "stateMutability": "view",
      "type": "function"
    },
    {
      "inputs": [],
      "name": "renounceOwnership",
      "outputs": [],
      "stateMutability": "nonpayable",
      "type": "function"
    },
    {
      "inputs": [
        {
          "internalType": "address",
          "name": "from",
          "type": "address"
        },
        {
          "internalType": "address",
          "name": "to",
          "type": "address"
        },
        {
          "internalType": "uint256",
          "name": "tokenId",
          "type": "uint256"
        }
      ],
      "name": "safeTransferFrom",
      "outputs": [],
      "stateMutability": "nonpayable",
      "type": "function"
    },
    {
      "inputs": [
        {
          "internalType": "address",
          "name": "from",
          "type": "address"
        },
        {
          "internalType": "address",
          "name": "to",
          "type": "address"
        },
        {
          "internalType": "uint256",
          "name": "tokenId",
          "type": "uint256"
        },
        {
          "internalType": "bytes",
          "name": "data",
          "type": "bytes"
        }
      ],
      "name": "safeTransferFrom",
      "outputs": [],
      "stateMutability": "nonpayable",
      "type": "function"
    },
    {
      "inputs": [
        {
          "internalType": "address",
          "name": "operator",
          "type": "address"
        },
        {
          "internalType": "bool",
          "name": "approved",
          "type": "bool"
        }
      ],
      "name": "setApprovalForAll",
      "outputs": [],
      "stateMutability": "nonpayable",
      "type": "function"
    },
    {
      "inputs": [
        {
          "internalType": "bytes4",
          "name": "interfaceId",
          "type": "bytes4"
        }
      ],
      "name": "supportsInterface",
      "outputs": [
        {
          "internalType": "bool",
          "name": "",
          "type": "bool"
        }
      ],
      "stateMutability": "view",
      "type": "function"
    },
    {
      "inputs": [],
      "name": "symbol",
      "outputs": [
        {
          "internalType": "string",
          "name": "",
          "type": "string"
        }
      ],
      "stateMutability": "view",
      "type": "function"
    },
    {
      "inputs": [],
      "name": "tokenCount",
      "outputs": [
        {
          "internalType": "uint256",
          "name": "",
          "type": "uint256"
        }
      ],
      "stateMutability": "view",
      "type": "function"
    },
    {
      "inputs": [
        {
          "internalType": "uint256",
          "name": "tokenId",
          "type": "uint256"
        }
      ],
      "name": "tokenURI",
      "outputs": [
        {
          "internalType": "string",
          "name": "",
          "type": "string"
        }
      ],
      "stateMutability": "view",
      "type": "function"
    },
    {
      "inputs": [
        {
          "internalType": "address",
          "name": "from",
          "type": "address"
        },
        {
          "internalType": "address",
          "name": "to",
          "type": "address"
        },
        {
          "internalType": "uint256",
          "name": "tokenId",
          "type": "uint256"
        }
      ],
      "name": "transferFrom",
      "outputs": [],
      "stateMutability": "nonpayable",
      "type": "function"
    },
    {
      "inputs": [
        {
          "internalType": "address",
          "name": "newOwner",
          "type": "address"
        }
      ],
      "name": "transferOwnership",
      "outputs": [],
      "stateMutability": "nonpayable",
      "type": "function"
    }
  ],
  "bytecode": "0x608060405260006009553480156200001657600080fd5b506040518060400160405280600981526020017f53696d706c654e465400000000000000000000000000000000000000000000008152506040518060400160405280600481526020017f534e465400000000000000000000000000000000000000000000000000000000815250816000908162000094919062000417565b508060019081620000a6919062000417565b505050620000c9620000bd620000cf60201b60201c565b620000d760201b60201c565b620004fe565b600033905090565b6000600760009054906101000a900473ffffffffffffffffffffffffffffffffffffffff16905081600760006101000a81548173ffffffffffffffffffffffffffffffffffffffff021916908373ffffffffffffffffffffffffffffffffffffffff1602179055508173ffffffffffffffffffffffffffffffffffffffff168173ffffffffffffffffffffffffffffffffffffffff167f8be0079c531659141344cd1fd0a4f28419497f9722a3daafe3b4186f6b6457e060405160405180910390a35050565b600081519050919050565b7f4e487b7100000000000000000000000000000000000000000000000000000000600052604160045260246000fd5b7f4e487b7100000000000000000000000000000000000000000000000000000000600052602260045260246000fd5b600060028204905060018216806200021f57607f821691505b602082108103620002355762000234620001d7565b5b50919050565b60008190508160005260206000209050919050565b60006020601f8301049050919050565b600082821b905092915050565b6000600883026200029f7fffffffffffffffffffffffffffffffffffffffffffffffffffffffffffffffff8262000260565b620002ab868362000260565b95508019841693508086168417925050509392505050565b6000819050919050565b6000819050919050565b6000620002f8620002f2620002ec84620002c3565b620002cd565b620002c3565b9050919050565b6000819050919050565b6200031483620002d7565b6200032c6200032382620002ff565b8484546200026d565b825550505050565b600090565b6200034362000334565b6200035081848462000309565b505050565b5b8181101562000378576200036c60008262000339565b60018101905062000356565b5050565b601f821115620003c75762000391816200023b565b6200039c8462000250565b81016020851015620003ac578190505b620003c4620003bb8562000250565b83018262000355565b50505b505050565b600082821c905092915050565b6000620003ec60001984600802620003cc565b1980831691505092915050565b6000620004078383620003d9565b9150826002028217905092915050565b62000422826200019d565b67ffffffffffffffff8111156200043e576200043d620001a8565b5b6200044a825462000206565b620004578282856200037c565b600060209050601f8311600181146200048f57600084156200047a578287015190505b620004868582620003f9565b865550620004f6565b601f1984166200049f866200023b565b60005b82811015620004c957848901518255600182019150602085019450602081019050620004a2565b86831015620004e95784890151620004e5601f891682620003d9565b8355505b6001600288020188555050505b505050505050565b612fd3806200050e6000396000f3fe608060405234801561001057600080fd5b50600436106101215760003560e01c8063715018a6116100ad578063b88d4fde11610071578063b88d4fde146102f6578063c87b56dd14610312578063d85d3d2714610342578063e985e9c514610372578063f2fde38b146103a257610121565b8063715018a6146102765780638da5cb5b1461028057806395d89b411461029e5780639f181b5e146102bc578063a22cb465146102da57610121565b806323b872dd116100f457806323b872dd146101c057806342842e0e146101dc5780636352211e146101f85780636817c76c1461022857806370a082311461024657610121565b806301ffc9a71461012657806306fdde0314610156578063081812fc14610174578063095ea7b3146101a4575b600080fd5b610140600480360381019061013b9190611d44565b6103be565b60405161014d9190611d8c565b60405180910390f35b61015e61041f565b60405161016b9190611e37565b60405180910390f35b61018e60048036038101906101899190611e8f565b6104b1565b60405161019b9190611efd565b60405180910390f35b6101be60048036038101906101b99190611f44565b6104f7565b005b6101da60048036038101906101d59190611f84565b61060e565b005b6101f660048036038101906101f19190611f84565b61066e565b005b610212600480360381019061020d9190611e8f565b61068e565b60405161021f9190611efd565b60405180910390f35b610230610714565b60405161023d9190611fe6565b60405180910390f35b610260600480360381019061025b9190612001565b61071a565b60405161026d9190611fe6565b60405180910390f35b61027e6107d1565b005b6102886107e5565b6040516102959190611efd565b60405180910390f35b6102a661080f565b6040516102b39190611e37565b60405180910390f35b6102c46108a1565b6040516102d19190611fe6565b60405180910390f35b6102f460048036038101906102ef919061205a565b6108a7565b005b610310600480360381019061030b91906121cf565b6108bd565b005b61032c60048036038101906103279190611e8f565b61091f565b6040516103399190611e37565b60405180910390f35b61035c600480360381019061035791906122f3565b610a31565b6040516103699190611fe6565b60405180910390f35b61038c6004803603810190610387919061233c565b610ac1565b6040516103999190611d8c565b60405180910390f35b6103bc60048036038101906103b79190612001565b610b55565b005b6000634906490660e01b7bffffffffffffffffffffffffffffffffffffffffffffffffffffffff1916827bffffffffffffffffffffffffffffffffffffffffffffffffffffffff19161480610418575061041782610bd8565b5b9050919050565b60606000805461042e906123ab565b80601f016020809104026020016040519081016040528092919081815260200182805461045a906123ab565b80156104a75780601f1061047c576101008083540402835291602001916104a7565b820191906000526020600020905b81548152906001019060200180831161048a57829003601f168201915b5050505050905090565b60006104bc82610cba565b6004600083815260200190815260200160002060009054906101000a900473ffffffffffffffffffffffffffffffffffffffff169050919050565b60006105028261068e565b90508073ffffffffffffffffffffffffffffffffffffffff168373ffffffffffffffffffffffffffffffffffffffff1603610572576040517f08c379a00000000000000000000000000000000000000000000000000000000081526004016105699061244e565b60405180910390fd5b8073ffffffffffffffffffffffffffffffffffffffff16610591610d05565b73ffffffffffffffffffffffffffffffffffffffff1614806105c057506105bf816105ba610d05565b610ac1565b5b6105ff576040517f08c379a00000000000000000000000000000000000000000000000000000000081526004016105f6906124e0565b60405180910390fd5b6106098383610d0d565b505050565b61061f610619610d05565b82610dc6565b61065e576040517f08c379a000000000000000000000000000000000000000000000000000000000815260040161065590612572565b60405180910390fd5b610669838383610e5b565b505050565b610689838383604051806020016040528060008152506108bd565b505050565b60008061069a83611154565b9050600073ffffffffffffffffffffffffffffffffffffffff168173ffffffffffffffffffffffffffffffffffffffff160361070b576040517f08c379a0000000000000000000000000000000000000000000000000000000008152600401610702906125de565b60405180910390fd5b80915050919050565b60095481565b60008073ffffffffffffffffffffffffffffffffffffffff168273ffffffffffffffffffffffffffffffffffffffff160361078a576040517f08c379a000000000000000000000000000000000000000000000000000000000815260040161078190612670565b60405180910390fd5b600360008373ffffffffffffffffffffffffffffffffffffffff1673ffffffffffffffffffffffffffffffffffffffff168152602001908152602001600020549050919050565b6107d9611191565b6107e3600061120f565b565b6000600760009054906101000a900473ffffffffffffffffffffffffffffffffffffffff16905090565b60606001805461081e906123ab565b80601f016020809104026020016040519081016040528092919081815260200182805461084a906123ab565b80156108975780601f1061086c57610100808354040283529160200191610897565b820191906000526020600020905b81548152906001019060200180831161087a57829003601f168201915b5050505050905090565b60085481565b6108b96108b2610d05565b83836112d5565b5050565b6108ce6108c8610d05565b83610dc6565b61090d576040517f08c379a000000000000000000000000000000000000000000000000000000000815260040161090490612572565b60405180910390fd5b61091984848484611441565b50505050565b606061092a82610cba565b600060066000848152602001908152602001600020805461094a906123ab565b80601f0160208091040260200160405190810160405280929190818152602001828054610976906123ab565b80156109c35780601f10610998576101008083540402835291602001916109c3565b820191906000526020600020905b8154815290600101906020018083116109a657829003601f168201915b5050505050905060006109d461149d565b905060008151036109e9578192505050610a2c565b600082511115610a1e578082604051602001610a069291906126cc565b60405160208183030381529060405292505050610a2c565b610a27846114b4565b925050505b919050565b6000600160086000828254610a46919061271f565b9250508190555060006008549050610a5e338261151c565b610a68818461153a565b3373ffffffffffffffffffffffffffffffffffffffff167fe7cd4ce7f2a465edc730269a1305e8a48bad821e8fb7e152ec413829c01a53c48285604051610ab0929190612753565b60405180910390a280915050919050565b6000600560008473ffffffffffffffffffffffffffffffffffffffff1673ffffffffffffffffffffffffffffffffffffffff16815260200190815260200160002060008373ffffffffffffffffffffffffffffffffffffffff1673ffffffffffffffffffffffffffffffffffffffff16815260200190815260200160002060009054906101000a900460ff16905092915050565b610b5d611191565b600073ffffffffffffffffffffffffffffffffffffffff168173ffffffffffffffffffffffffffffffffffffffff1603610bcc576040517f08c379a0000000000000000000000000000000000000000000000000000000008152600401610bc3906127f5565b60405180910390fd5b610bd58161120f565b50565b60007f80ac58cd000000000000000000000000000000000000000000000000000000007bffffffffffffffffffffffffffffffffffffffffffffffffffffffff1916827bffffffffffffffffffffffffffffffffffffffffffffffffffffffff19161480610ca357507f5b5e139f000000000000000000000000000000000000000000000000000000007bffffffffffffffffffffffffffffffffffffffffffffffffffffffff1916827bffffffffffffffffffffffffffffffffffffffffffffffffffffffff1916145b80610cb35750610cb2826115de565b5b9050919050565b610cc381611648565b610d02576040517f08c379a0000000000000000000000000000000000000000000000000000000008152600401610cf9906125de565b60405180910390fd5b50565b600033905090565b816004600083815260200190815260200160002060006101000a81548173ffffffffffffffffffffffffffffffffffffffff021916908373ffffffffffffffffffffffffffffffffffffffff160217905550808273ffffffffffffffffffffffffffffffffffffffff16610d808361068e565b73ffffffffffffffffffffffffffffffffffffffff167f8c5be1e5ebec7d5bd14f71427d1e84f3dd0314c0f7b2291e5b200ac8c7c3b92560405160405180910390a45050565b600080610dd28361068e565b90508073ffffffffffffffffffffffffffffffffffffffff168473ffffffffffffffffffffffffffffffffffffffff161480610e145750610e138185610ac1565b5b80610e5257508373ffffffffffffffffffffffffffffffffffffffff16610e3a846104b1565b73ffffffffffffffffffffffffffffffffffffffff16145b91505092915050565b8273ffffffffffffffffffffffffffffffffffffffff16610e7b8261068e565b73ffffffffffffffffffffffffffffffffffffffff1614610ed1576040517f08c379a0000000000000000000000000000000000000000000000000000000008152600401610ec890612887565b60405180910390fd5b600073ffffffffffffffffffffffffffffffffffffffff168273ffffffffffffffffffffffffffffffffffffffff1603610f40576040517f08c379a0000000000000000000000000000000000000000000000000000000008152600401610f3790612919565b60405180910390fd5b610f4d8383836001611689565b8273ffffffffffffffffffffffffffffffffffffffff16610f6d8261068e565b73ffffffffffffffffffffffffffffffffffffffff1614610fc3576040517f08c379a0000000000000000000000000000000000000000000000000000000008152600401610fba90612887565b60405180910390fd5b6004600082815260200190815260200160002060006101000a81549073ffffffffffffffffffffffffffffffffffffffff02191690556001600360008573ffffffffffffffffffffffffffffffffffffffff1673ffffffffffffffffffffffffffffffffffffffff168152602001908152602001600020600082825403925050819055506001600360008473ffffffffffffffffffffffffffffffffffffffff1673ffffffffffffffffffffffffffffffffffffffff16815260200190815260200160002060008282540192505081905550816002600083815260200190815260200160002060006101000a81548173ffffffffffffffffffffffffffffffffffffffff021916908373ffffffffffffffffffffffffffffffffffffffff160217905550808273ffffffffffffffffffffffffffffffffffffffff168473ffffffffffffffffffffffffffffffffffffffff167fddf252ad1be2c89b69c2b068fc378daa952ba7f163c4a11628f55a4df523b3ef60405160405180910390a461114f838383600161168f565b505050565b60006002600083815260200190815260200160002060009054906101000a900473ffffffffffffffffffffffffffffffffffffffff169050919050565b611199610d05565b73ffffffffffffffffffffffffffffffffffffffff166111b76107e5565b73ffffffffffffffffffffffffffffffffffffffff161461120d576040517f08c379a000000000000000000000000000000000000000000000000000000000815260040161120490612985565b60405180910390fd5b565b6000600760009054906101000a900473ffffffffffffffffffffffffffffffffffffffff16905081600760006101000a81548173ffffffffffffffffffffffffffffffffffffffff021916908373ffffffffffffffffffffffffffffffffffffffff1602179055508173ffffffffffffffffffffffffffffffffffffffff168173ffffffffffffffffffffffffffffffffffffffff167f8be0079c531659141344cd1fd0a4f28419497f9722a3daafe3b4186f6b6457e060405160405180910390a35050565b8173ffffffffffffffffffffffffffffffffffffffff168373ffffffffffffffffffffffffffffffffffffffff1603611343576040517f08c379a000000000000000000000000000000000000000000000000000000000815260040161133a906129f1565b60405180910390fd5b80600560008573ffffffffffffffffffffffffffffffffffffffff1673ffffffffffffffffffffffffffffffffffffffff16815260200190815260200160002060008473ffffffffffffffffffffffffffffffffffffffff1673ffffffffffffffffffffffffffffffffffffffff16815260200190815260200160002060006101000a81548160ff0219169083151502179055508173ffffffffffffffffffffffffffffffffffffffff168373ffffffffffffffffffffffffffffffffffffffff167f17307eab39ab6107e8899845ad3d59bd9653f200f220920489ca2b5937696c31836040516114349190611d8c565b60405180910390a3505050565b61144c848484610e5b565b61145884848484611695565b611497576040517f08c379a000000000000000000000000000000000000000000000000000000000815260040161148e90612a83565b60405180910390fd5b50505050565b606060405180602001604052806000815250905090565b60606114bf82610cba565b60006114c961149d565b905060008151116114e95760405180602001604052806000815250611514565b806114f38461181c565b6040516020016115049291906126cc565b6040516020818303038152906040525b915050919050565b6115368282604051806020016040528060008152506118ea565b5050565b61154382611648565b611582576040517f08c379a000000000000000000000000000000000000000000000000000000000815260040161157990612b15565b60405180910390fd5b806006600084815260200190815260200160002090816115a29190612ce1565b507ff8e1a15aba9398e019f0b49df1a4fde98ee17ae345cb5f6b5e2c27f5033e8ce7826040516115d29190611fe6565b60405180910390a15050565b60007f01ffc9a7000000000000000000000000000000000000000000000000000000007bffffffffffffffffffffffffffffffffffffffffffffffffffffffff1916827bffffffffffffffffffffffffffffffffffffffffffffffffffffffff1916149050919050565b60008073ffffffffffffffffffffffffffffffffffffffff1661166a83611154565b73ffffffffffffffffffffffffffffffffffffffff1614159050919050565b50505050565b50505050565b60006116b68473ffffffffffffffffffffffffffffffffffffffff16611945565b1561180f578373ffffffffffffffffffffffffffffffffffffffff1663150b7a026116df610d05565b8786866040518563ffffffff1660e01b81526004016117019493929190612e08565b6020604051808303816000875af192505050801561173d57506040513d601f19601f8201168201806040525081019061173a9190612e69565b60015b6117bf573d806000811461176d576040519150601f19603f3d011682016040523d82523d6000602084013e611772565b606091505b5060008151036117b7576040517f08c379a00000000000000000000000000000000000000000000000000000000081526004016117ae90612a83565b60405180910390fd5b805181602001fd5b63150b7a0260e01b7bffffffffffffffffffffffffffffffffffffffffffffffffffffffff1916817bffffffffffffffffffffffffffffffffffffffffffffffffffffffff191614915050611814565b600190505b949350505050565b60606000600161182b84611968565b01905060008167ffffffffffffffff81111561184a576118496120a4565b5b6040519080825280601f01601f19166020018201604052801561187c5781602001600182028036833780820191505090505b509050600082602001820190505b6001156118df578080600190039150507f3031323334353637383961626364656600000000000000000000000000000000600a86061a8153600a85816118d3576118d2612e96565b5b0494506000850361188a575b819350505050919050565b6118f48383611abb565b6119016000848484611695565b611940576040517f08c379a000000000000000000000000000000000000000000000000000000000815260040161193790612a83565b60405180910390fd5b505050565b6000808273ffffffffffffffffffffffffffffffffffffffff163b119050919050565b600080600090507a184f03e93ff9f4daa797ed6e38ed64bf6a1f01000000000000000083106119c6577a184f03e93ff9f4daa797ed6e38ed64bf6a1f01000000000000000083816119bc576119bb612e96565b5b0492506040810190505b6d04ee2d6d415b85acef81000000008310611a03576d04ee2d6d415b85acef810000000083816119f9576119f8612e96565b5b0492506020810190505b662386f26fc100008310611a3257662386f26fc100008381611a2857611a27612e96565b5b0492506010810190505b6305f5e1008310611a5b576305f5e1008381611a5157611a50612e96565b5b0492506008810190505b6127108310611a80576127108381611a7657611a75612e96565b5b0492506004810190505b60648310611aa35760648381611a9957611a98612e96565b5b0492506002810190505b600a8310611ab2576001810190505b80915050919050565b600073ffffffffffffffffffffffffffffffffffffffff168273ffffffffffffffffffffffffffffffffffffffff1603611b2a576040517f08c379a0000000000000000000000000000000000000000000000000000000008152600401611b2190612f11565b60405180910390fd5b611b3381611648565b15611b73576040517f08c379a0000000000000000000000000000000000000000000000000000000008152600401611b6a90612f7d565b60405180910390fd5b611b81600083836001611689565b611b8a81611648565b15611bca576040517f08c379a0000000000000000000000000000000000000000000000000000000008152600401611bc190612f7d565b60405180910390fd5b6001600360008473ffffffffffffffffffffffffffffffffffffffff1673ffffffffffffffffffffffffffffffffffffffff16815260200190815260200160002060008282540192505081905550816002600083815260200190815260200160002060006101000a81548173ffffffffffffffffffffffffffffffffffffffff021916908373ffffffffffffffffffffffffffffffffffffffff160217905550808273ffffffffffffffffffffffffffffffffffffffff16600073ffffffffffffffffffffffffffffffffffffffff167fddf252ad1be2c89b69c2b068fc378daa952ba7f163c4a11628f55a4df523b3ef60405160405180910390a4611cd460008383600161168f565b5050565b6000604051905090565b600080fd5b600080fd5b60007fffffffff0000000000000000000000000000000000000000000000000000000082169050919050565b611d2181611cec565b8114611d2c57600080fd5b50565b600081359050611d3e81611d18565b92915050565b600060208284031215611d5a57611d59611ce2565b5b6000611d6884828501611d2f565b91505092915050565b60008115159050919050565b611d8681611d71565b82525050565b6000602082019050611da16000830184611d7d565b92915050565b600081519050919050565b600082825260208201905092915050565b60005b83811015611de1578082015181840152602081019050611dc6565b60008484015250505050565b6000601f19601f8301169050919050565b6000611e0982611da7565b611e138185611db2565b9350611e23818560208601611dc3565b611e2c81611ded565b840191505092915050565b60006020820190508181036000830152611e518184611dfe565b905092915050565b6000819050919050565b611e6c81611e59565b8114611e7757600080fd5b50565b600081359050611e8981611e63565b92915050565b600060208284031215611ea557611ea4611ce2565b5b6000611eb384828501611e7a565b91505092915050565b600073ffffffffffffffffffffffffffffffffffffffff82169050919050565b6000611ee782611ebc565b9050919050565b611ef781611edc565b82525050565b6000602082019050611f126000830184611eee565b92915050565b611f2181611edc565b8114611f2c57600080fd5b50565b600081359050611f3e81611f18565b92915050565b60008060408385031215611f5b57611f5a611ce2565b5b6000611f6985828601611f2f565b9250506020611f7a85828601611e7a565b9150509250929050565b600080600060608486031215611f9d57611f9c611ce2565b5b6000611fab86828701611f2f565b9350506020611fbc86828701611f2f565b9250506040611fcd86828701611e7a565b9150509250925092565b611fe081611e59565b82525050565b6000602082019050611ffb6000830184611fd7565b92915050565b60006020828403121561201757612016611ce2565b5b600061202584828501611f2f565b91505092915050565b61203781611d71565b811461204257600080fd5b50565b6000813590506120548161202e565b92915050565b6000806040838503121561207157612070611ce2565b5b600061207f85828601611f2f565b925050602061209085828601612045565b9150509250929050565b600080fd5b600080fd5b7f4e487b7100000000000000000000000000000000000000000000000000000000600052604160045260246000fd5b6120dc82611ded565b810181811067ffffffffffffffff821117156120fb576120fa6120a4565b5b80604052505050565b600061210e611cd8565b905061211a82826120d3565b919050565b600067ffffffffffffffff82111561213a576121396120a4565b5b61214382611ded565b9050602081019050919050565b82818337600083830152505050565b600061217261216d8461211f565b612104565b90508281526020810184848401111561218e5761218d61209f565b5b612199848285612150565b509392505050565b600082601f8301126121b6576121b561209a565b5b81356121c684826020860161215f565b91505092915050565b600080600080608085870312156121e9576121e8611ce2565b5b60006121f787828801611f2f565b945050602061220887828801611f2f565b935050604061221987828801611e7a565b925050606085013567ffffffffffffffff81111561223a57612239611ce7565b5b612246878288016121a1565b91505092959194509250565b600067ffffffffffffffff82111561226d5761226c6120a4565b5b61227682611ded565b9050602081019050919050565b600061229661229184612252565b612104565b9050828152602081018484840111156122b2576122b161209f565b5b6122bd848285612150565b509392505050565b600082601f8301126122da576122d961209a565b5b81356122ea848260208601612283565b91505092915050565b60006020828403121561230957612308611ce2565b5b600082013567ffffffffffffffff81111561232757612326611ce7565b5b612333848285016122c5565b91505092915050565b6000806040838503121561235357612352611ce2565b5b600061236185828601611f2f565b925050602061237285828601611f2f565b9150509250929050565b7f4e487b7100000000000000000000000000000000000000000000000000000000600052602260045260246000fd5b600060028204905060018216806123c357607f821691505b6020821081036123d6576123d561237c565b5b50919050565b7f4552433732313a20617070726f76616c20746f2063757272656e74206f776e6560008201527f7200000000000000000000000000000000000000000000000000000000000000602082015250565b6000612438602183611db2565b9150612443826123dc565b604082019050919050565b600060208201905081810360008301526124678161242b565b9050919050565b7f4552433732313a20617070726f76652063616c6c6572206973206e6f7420746f60008201527f6b656e206f776e6572206f7220617070726f76656420666f7220616c6c000000602082015250565b60006124ca603d83611db2565b91506124d58261246e565b604082019050919050565b600060208201905081810360008301526124f9816124bd565b9050919050565b7f4552433732313a2063616c6c6572206973206e6f7420746f6b656e206f776e6560008201527f72206f7220617070726f76656400000000000000000000000000000000000000602082015250565b600061255c602d83611db2565b915061256782612500565b604082019050919050565b6000602082019050818103600083015261258b8161254f565b9050919050565b7f4552433732313a20696e76616c696420746f6b656e2049440000000000000000600082015250565b60006125c8601883611db2565b91506125d382612592565b602082019050919050565b600060208201905081810360008301526125f7816125bb565b9050919050565b7f4552433732313a2061646472657373207a65726f206973206e6f74206120766160008201527f6c6964206f776e65720000000000000000000000000000000000000000000000602082015250565b600061265a602983611db2565b9150612665826125fe565b604082019050919050565b600060208201905081810360008301526126898161264d565b9050919050565b600081905092915050565b60006126a682611da7565b6126b08185612690565b93506126c0818560208601611dc3565b80840191505092915050565b60006126d8828561269b565b91506126e4828461269b565b91508190509392505050565b7f4e487b7100000000000000000000000000000000000000000000000000000000600052601160045260246000fd5b600061272a82611e59565b915061273583611e59565b925082820190508082111561274d5761274c6126f0565b5b92915050565b60006040820190506127686000830185611fd7565b818103602083015261277a8184611dfe565b90509392505050565b7f4f776e61626c653a206e6577206f776e657220697320746865207a65726f206160008201527f6464726573730000000000000000000000000000000000000000000000000000602082015250565b60006127df602683611db2565b91506127ea82612783565b604082019050919050565b6000602082019050818103600083015261280e816127d2565b9050919050565b7f4552433732313a207472616e736665722066726f6d20696e636f72726563742060008201527f6f776e6572000000000000000000000000000000000000000000000000000000602082015250565b6000612871602583611db2565b915061287c82612815565b604082019050919050565b600060208201905081810360008301526128a081612864565b9050919050565b7f4552433732313a207472616e7366657220746f20746865207a65726f2061646460008201527f7265737300000000000000000000000000000000000000000000000000000000602082015250565b6000612903602483611db2565b915061290e826128a7565b604082019050919050565b60006020820190508181036000830152612932816128f6565b9050919050565b7f4f776e61626c653a2063616c6c6572206973206e6f7420746865206f776e6572600082015250565b600061296f602083611db2565b915061297a82612939565b602082019050919050565b6000602082019050818103600083015261299e81612962565b9050919050565b7f4552433732313a20617070726f766520746f2063616c6c657200000000000000600082015250565b60006129db601983611db2565b91506129e6826129a5565b602082019050919050565b60006020820190508181036000830152612a0a816129ce565b9050919050565b7f4552433732313a207472616e7366657220746f206e6f6e20455243373231526560008201527f63656976657220696d706c656d656e7465720000000000000000000000000000602082015250565b6000612a6d603283611db2565b9150612a7882612a11565b604082019050919050565b60006020820190508181036000830152612a9c81612a60565b9050919050565b7f45524337323155524953746f726167653a2055524920736574206f66206e6f6e60008201527f6578697374656e7420746f6b656e000000000000000000000000000000000000602082015250565b6000612aff602e83611db2565b9150612b0a82612aa3565b604082019050919050565b60006020820190508181036000830152612b2e81612af2565b9050919050565b60008190508160005260206000209050919050565b60006020601f8301049050919050565b600082821b905092915050565b600060088302612b977fffffffffffffffffffffffffffffffffffffffffffffffffffffffffffffffff82612b5a565b612ba18683612b5a565b95508019841693508086168417925050509392505050565b6000819050919050565b6000612bde612bd9612bd484611e59565b612bb9565b611e59565b9050919050565b6000819050919050565b612bf883612bc3565b612c0c612c0482612be5565b848454612b67565b825550505050565b600090565b612c21612c14565b612c2c818484612bef565b505050565b5b81811015612c5057612c45600082612c19565b600181019050612c32565b5050565b601f821115612c9557612c6681612b35565b612c6f84612b4a565b81016020851015612c7e578190505b612c92612c8a85612b4a565b830182612c31565b50505b505050565b600082821c905092915050565b6000612cb860001984600802612c9a565b1980831691505092915050565b6000612cd18383612ca7565b9150826002028217905092915050565b612cea82611da7565b67ffffffffffffffff811115612d0357612d026120a4565b5b612d0d82546123ab565b612d18828285612c54565b600060209050601f831160018114612d4b5760008415612d39578287015190505b612d438582612cc5565b865550612dab565b601f198416612d5986612b35565b60005b82811015612d8157848901518255600182019150602085019450602081019050612d5c565b86831015612d9e5784890151612d9a601f891682612ca7565b8355505b6001600288020188555050505b505050505050565b600081519050919050565b600082825260208201905092915050565b6000612dda82612db3565b612de48185612dbe565b9350612df4818560208601611dc3565b612dfd81611ded565b840191505092915050565b6000608082019050612e1d6000830187611eee565b612e2a6020830186611eee565b612e376040830185611fd7565b8181036060830152612e498184612dcf565b905095945050505050565b600081519050612e6381611d18565b92915050565b600060208284031215612e7f57612e7e611ce2565b5b6000612e8d84828501612e54565b91505092915050565b7f4e487b7100000000000000000000000000000000000000000000000000000000600052601260045260246000fd5b7f4552433732313a206d696e7420746f20746865207a65726f2061646472657373600082015250565b6000612efb602083611db2565b9150612f0682612ec5565b602082019050919050565b60006020820190508181036000830152612f2a81612eee565b9050919050565b7f4552433732313a20746f6b656e20616c7265616479206d696e74656400000000600082015250565b6000612f67601c83611db2565b9150612f7282612f31565b602082019050919050565b60006020820190508181036000830152612f9681612f5a565b905091905056fea26469706673582212201fa3d0668b98b4379692138f95d1adaffb5554106ad9ea1740b88c998ae2d16664736f6c63430008140033",
  "linkReferences": {},
  "deployedLinkReferences": {}
}